{
  "_format": "hh-sol-artifact-1",
  "contractName": "MyEpicNFT",
  "sourceName": "contracts/MyEpicNFT.sol",
  "abi": [
    {
      "inputs": [],
      "stateMutability": "nonpayable",
      "type": "constructor"
    },
    {
      "anonymous": false,
      "inputs": [
        {
          "indexed": true,
          "internalType": "address",
          "name": "owner",
          "type": "address"
        },
        {
          "indexed": true,
          "internalType": "address",
          "name": "approved",
          "type": "address"
        },
        {
          "indexed": true,
          "internalType": "uint256",
          "name": "tokenId",
          "type": "uint256"
        }
      ],
      "name": "Approval",
      "type": "event"
    },
    {
      "anonymous": false,
      "inputs": [
        {
          "indexed": true,
          "internalType": "address",
          "name": "owner",
          "type": "address"
        },
        {
          "indexed": true,
          "internalType": "address",
          "name": "operator",
          "type": "address"
        },
        {
          "indexed": false,
          "internalType": "bool",
          "name": "approved",
          "type": "bool"
        }
      ],
      "name": "ApprovalForAll",
      "type": "event"
    },
    {
      "anonymous": false,
      "inputs": [
        {
          "indexed": false,
          "internalType": "address",
          "name": "sender",
          "type": "address"
        },
        {
          "indexed": false,
          "internalType": "uint256",
          "name": "tokenId",
          "type": "uint256"
        }
      ],
      "name": "NewEpicNFTMinted",
      "type": "event"
    },
    {
      "anonymous": false,
      "inputs": [
        {
          "indexed": true,
          "internalType": "address",
          "name": "from",
          "type": "address"
        },
        {
          "indexed": true,
          "internalType": "address",
          "name": "to",
          "type": "address"
        },
        {
          "indexed": true,
          "internalType": "uint256",
          "name": "tokenId",
          "type": "uint256"
        }
      ],
      "name": "Transfer",
      "type": "event"
    },
    {
      "inputs": [
        {
          "internalType": "address",
          "name": "to",
          "type": "address"
        },
        {
          "internalType": "uint256",
          "name": "tokenId",
          "type": "uint256"
        }
      ],
      "name": "approve",
      "outputs": [],
      "stateMutability": "nonpayable",
      "type": "function"
    },
    {
      "inputs": [
        {
          "internalType": "address",
          "name": "owner",
          "type": "address"
        }
      ],
      "name": "balanceOf",
      "outputs": [
        {
          "internalType": "uint256",
          "name": "",
          "type": "uint256"
        }
      ],
      "stateMutability": "view",
      "type": "function"
    },
    {
      "inputs": [
        {
          "internalType": "uint256",
          "name": "tokenId",
          "type": "uint256"
        }
      ],
      "name": "getApproved",
      "outputs": [
        {
          "internalType": "address",
          "name": "",
          "type": "address"
        }
      ],
      "stateMutability": "view",
      "type": "function"
    },
    {
      "inputs": [
        {
          "internalType": "address",
          "name": "owner",
          "type": "address"
        },
        {
          "internalType": "address",
          "name": "operator",
          "type": "address"
        }
      ],
      "name": "isApprovedForAll",
      "outputs": [
        {
          "internalType": "bool",
          "name": "",
          "type": "bool"
        }
      ],
      "stateMutability": "view",
      "type": "function"
    },
    {
      "inputs": [],
      "name": "makeAnEpicNFT",
      "outputs": [],
      "stateMutability": "nonpayable",
      "type": "function"
    },
    {
      "inputs": [],
      "name": "name",
      "outputs": [
        {
          "internalType": "string",
          "name": "",
          "type": "string"
        }
      ],
      "stateMutability": "view",
      "type": "function"
    },
    {
      "inputs": [
        {
          "internalType": "uint256",
          "name": "tokenId",
          "type": "uint256"
        }
      ],
      "name": "ownerOf",
      "outputs": [
        {
          "internalType": "address",
          "name": "",
          "type": "address"
        }
      ],
      "stateMutability": "view",
      "type": "function"
    },
    {
      "inputs": [
        {
          "internalType": "uint256",
          "name": "tokenId",
          "type": "uint256"
        }
      ],
      "name": "pickRandomColor",
      "outputs": [
        {
          "internalType": "string",
          "name": "",
          "type": "string"
        }
      ],
      "stateMutability": "view",
      "type": "function"
    },
    {
      "inputs": [
        {
          "internalType": "uint256",
          "name": "tokenId",
          "type": "uint256"
        }
      ],
      "name": "pickRandomFirstWord",
      "outputs": [
        {
          "internalType": "string",
          "name": "",
          "type": "string"
        }
      ],
      "stateMutability": "view",
      "type": "function"
    },
    {
      "inputs": [
        {
          "internalType": "uint256",
          "name": "tokenId",
          "type": "uint256"
        }
      ],
      "name": "pickRandomSecondWord",
      "outputs": [
        {
          "internalType": "string",
          "name": "",
          "type": "string"
        }
      ],
      "stateMutability": "view",
      "type": "function"
    },
    {
      "inputs": [
        {
          "internalType": "uint256",
          "name": "tokenId",
          "type": "uint256"
        }
      ],
      "name": "pickRandomThirdWord",
      "outputs": [
        {
          "internalType": "string",
          "name": "",
          "type": "string"
        }
      ],
      "stateMutability": "view",
      "type": "function"
    },
    {
      "inputs": [
        {
          "internalType": "address",
          "name": "from",
          "type": "address"
        },
        {
          "internalType": "address",
          "name": "to",
          "type": "address"
        },
        {
          "internalType": "uint256",
          "name": "tokenId",
          "type": "uint256"
        }
      ],
      "name": "safeTransferFrom",
      "outputs": [],
      "stateMutability": "nonpayable",
      "type": "function"
    },
    {
      "inputs": [
        {
          "internalType": "address",
          "name": "from",
          "type": "address"
        },
        {
          "internalType": "address",
          "name": "to",
          "type": "address"
        },
        {
          "internalType": "uint256",
          "name": "tokenId",
          "type": "uint256"
        },
        {
          "internalType": "bytes",
          "name": "_data",
          "type": "bytes"
        }
      ],
      "name": "safeTransferFrom",
      "outputs": [],
      "stateMutability": "nonpayable",
      "type": "function"
    },
    {
      "inputs": [
        {
          "internalType": "address",
          "name": "operator",
          "type": "address"
        },
        {
          "internalType": "bool",
          "name": "approved",
          "type": "bool"
        }
      ],
      "name": "setApprovalForAll",
      "outputs": [],
      "stateMutability": "nonpayable",
      "type": "function"
    },
    {
      "inputs": [
        {
          "internalType": "bytes4",
          "name": "interfaceId",
          "type": "bytes4"
        }
      ],
      "name": "supportsInterface",
      "outputs": [
        {
          "internalType": "bool",
          "name": "",
          "type": "bool"
        }
      ],
      "stateMutability": "view",
      "type": "function"
    },
    {
      "inputs": [],
      "name": "symbol",
      "outputs": [
        {
          "internalType": "string",
          "name": "",
          "type": "string"
        }
      ],
      "stateMutability": "view",
      "type": "function"
    },
    {
      "inputs": [
        {
          "internalType": "uint256",
          "name": "tokenId",
          "type": "uint256"
        }
      ],
      "name": "tokenURI",
      "outputs": [
        {
          "internalType": "string",
          "name": "",
          "type": "string"
        }
      ],
      "stateMutability": "view",
      "type": "function"
    },
    {
      "inputs": [
        {
          "internalType": "address",
          "name": "from",
          "type": "address"
        },
        {
          "internalType": "address",
          "name": "to",
          "type": "address"
        },
        {
          "internalType": "uint256",
          "name": "tokenId",
          "type": "uint256"
        }
      ],
      "name": "transferFrom",
      "outputs": [],
      "stateMutability": "nonpayable",
      "type": "function"
    }
  ],
  "bytecode": "0x608060405260405180610100016040528060d381526020016200508260d39139600890805190602001906200003692919062001218565b506040518060800160405280605681526020016200515560569139600990805190602001906200006892919062001218565b506040518061028001604052806040518060400160405280600381526020017f496365000000000000000000000000000000000000000000000000000000000081525081526020016040518060400160405280600481526020017f4c756b650000000000000000000000000000000000000000000000000000000081525081526020016040518060400160405280600381526020017f486f74000000000000000000000000000000000000000000000000000000000081525081526020016040518060400160405280600481526020017f446561640000000000000000000000000000000000000000000000000000000081525081526020016040518060400160405280600581526020017f4d6561747900000000000000000000000000000000000000000000000000000081525081526020016040518060400160405280600881526020017f466c61776c65737300000000000000000000000000000000000000000000000081525081526020016040518060400160405280600681526020017f466c696d7379000000000000000000000000000000000000000000000000000081525081526020016040518060400160405280600581526020017f4561726c7900000000000000000000000000000000000000000000000000000081525081526020016040518060400160405280600681526020017f53706f6f6b79000000000000000000000000000000000000000000000000000081525081526020016040518060400160405280600681526020017f547261736879000000000000000000000000000000000000000000000000000081525081526020016040518060400160405280600781526020017f46726167696c650000000000000000000000000000000000000000000000000081525081526020016040518060400160405280600681526020017f426f756e6379000000000000000000000000000000000000000000000000000081525081526020016040518060400160405280600581526020017f46756e6e7900000000000000000000000000000000000000000000000000000081525081526020016040518060400160405280600581526020017f436167657900000000000000000000000000000000000000000000000000000081525081526020016040518060400160405280600b81526020017f5374696d756c6174696e6700000000000000000000000000000000000000000081525081526020016040518060400160405280600881526020017f44696c6967656e7400000000000000000000000000000000000000000000000081525081526020016040518060400160405280600681526020017f46696c746879000000000000000000000000000000000000000000000000000081525081526020016040518060400160405280600981526020017f4e6f7374616c676963000000000000000000000000000000000000000000000081525081526020016040518060400160405280600381526020017f576574000000000000000000000000000000000000000000000000000000000081525081526020016040518060400160405280600481526020017f4875676500000000000000000000000000000000000000000000000000000000815250815250600a90601462000521929190620012a9565b506040518061028001604052806040518060400160405280600481526020017f436f6c640000000000000000000000000000000000000000000000000000000081525081526020016040518060400160405280600481526020017f5761726d0000000000000000000000000000000000000000000000000000000081525081526020016040518060400160405280600881526020017f4f7274686f646f7800000000000000000000000000000000000000000000000081525081526020016040518060400160405280600681526020017f447265617279000000000000000000000000000000000000000000000000000081525081526020016040518060400160405280600881526020017f566f6c6174696c6500000000000000000000000000000000000000000000000081525081526020016040518060400160405280600681526020017f546573746564000000000000000000000000000000000000000000000000000081525081526020016040518060400160405280600581526020017f447573747900000000000000000000000000000000000000000000000000000081525081526020016040518060400160405280600881526020017f436865657266756c00000000000000000000000000000000000000000000000081525081526020016040518060400160405280600581526020017f4a6164656400000000000000000000000000000000000000000000000000000081525081526020016040518060400160405280600881526020017f476c6f72696f757300000000000000000000000000000000000000000000000081525081526020016040518060400160405280600681526020017f556e74696479000000000000000000000000000000000000000000000000000081525081526020016040518060400160405280600581526020017f4b6170757400000000000000000000000000000000000000000000000000000081525081526020016040518060400160405280600481526020017f576973650000000000000000000000000000000000000000000000000000000081525081526020016040518060400160405280600981526020017f4261726261726f7573000000000000000000000000000000000000000000000081525081526020016040518060400160405280600a81526020017f476c697374656e696e670000000000000000000000000000000000000000000081525081526020016040518060400160405280600481526020017f536f66740000000000000000000000000000000000000000000000000000000081525081526020016040518060400160405280600581526020017f536361727900000000000000000000000000000000000000000000000000000081525081526020016040518060400160405280600681526020017f456172746879000000000000000000000000000000000000000000000000000081525081526020016040518060400160405280600681526020017f506f69736564000000000000000000000000000000000000000000000000000081525081526020016040518060400160405280600581526020017f5370696379000000000000000000000000000000000000000000000000000000815250815250600b906014620009da929190620012a9565b50604051806102a001604052806040518060400160405280600481526020017f456467650000000000000000000000000000000000000000000000000000000081525081526020016040518060400160405280600681526020017f4d6964646c65000000000000000000000000000000000000000000000000000081525081526020016040518060400160405280600381526020017f477579000000000000000000000000000000000000000000000000000000000081525081526020016040518060400160405280600381526020017f47616c000000000000000000000000000000000000000000000000000000000081525081526020016040518060400160405280600481526020017f426162790000000000000000000000000000000000000000000000000000000081525081526020016040518060400160405280600581526020017f576966657900000000000000000000000000000000000000000000000000000081525081526020016040518060400160405280600481526020017f4d6172730000000000000000000000000000000000000000000000000000000081525081526020016040518060400160405280600481526020017f46696c650000000000000000000000000000000000000000000000000000000081525081526020016040518060400160405280600781526020017f467265696768740000000000000000000000000000000000000000000000000081525081526020016040518060400160405280600481526020017f4d6169640000000000000000000000000000000000000000000000000000000081525081526020016040518060400160405280600581526020017f537765617400000000000000000000000000000000000000000000000000000081525081526020016040518060400160405280600581526020017f537469636b00000000000000000000000000000000000000000000000000000081525081526020016040518060400160405280600481526020017f486f6c650000000000000000000000000000000000000000000000000000000081525081526020016040518060400160405280600581526020017f526562656c00000000000000000000000000000000000000000000000000000081525081526020016040518060400160405280600381526020017f506965000000000000000000000000000000000000000000000000000000000081525081526020016040518060400160405280600781526020017f4f7574636f6d650000000000000000000000000000000000000000000000000081525081526020016040518060400160405280600581526020017f526174696f00000000000000000000000000000000000000000000000000000081525081526020016040518060400160405280600581526020017f4163746f7200000000000000000000000000000000000000000000000000000081525081526020016040518060400160405280600981526020017f547261646974696f6e000000000000000000000000000000000000000000000081525081526020016040518060400160405280600781526020017f42616c616e63650000000000000000000000000000000000000000000000000081525081526020016040518060400160405280600681526020017f53657875616c0000000000000000000000000000000000000000000000000000815250815250600c90601562000ece92919062001310565b506040518060c001604052806040518060400160405280600381526020017f726564000000000000000000000000000000000000000000000000000000000081525081526020016040518060400160405280600781526020017f233038433241380000000000000000000000000000000000000000000000000081525081526020016040518060400160405280600581526020017f626c61636b00000000000000000000000000000000000000000000000000000081525081526020016040518060400160405280600681526020017f79656c6c6f77000000000000000000000000000000000000000000000000000081525081526020016040518060400160405280600481526020017f626c75650000000000000000000000000000000000000000000000000000000081525081526020016040518060400160405280600581526020017f677265656e000000000000000000000000000000000000000000000000000000815250815250600d9060066200104c92919062001377565b503480156200105a57600080fd5b506040518060400160405280600981526020017f5371756172654e465400000000000000000000000000000000000000000000008152506040518060400160405280600681526020017f53515541524500000000000000000000000000000000000000000000000000008152508160009080519060200190620010df92919062001218565b508060019080519060200190620010f892919062001218565b505050620011466040518060400160405280600a81526020017f496365436f6c644e4654000000000000000000000000000000000000000000008152506200114c60201b620012491760201c565b62001598565b620011ec81604051602401620011639190620014ac565b6040516020818303038152906040527f41304fac000000000000000000000000000000000000000000000000000000007bffffffffffffffffffffffffffffffffffffffffffffffffffffffff19166020820180517bffffffffffffffffffffffffffffffffffffffffffffffffffffffff8381831617835250505050620011ef60201b60201c565b50565b60008151905060006a636f6e736f6c652e6c6f679050602083016000808483855afa5050505050565b828054620012269062001522565b90600052602060002090601f0160209004810192826200124a576000855562001296565b82601f106200126557805160ff191683800117855562001296565b8280016001018555821562001296579182015b828111156200129557825182559160200191906001019062001278565b5b509050620012a59190620013de565b5090565b828054828255906000526020600020908101928215620012fd579160200282015b82811115620012fc578251829080519060200190620012eb92919062001218565b5091602001919060010190620012ca565b5b5090506200130c9190620013fd565b5090565b82805482825590600052602060002090810192821562001364579160200282015b82811115620013635782518290805190602001906200135292919062001218565b509160200191906001019062001331565b5b509050620013739190620013fd565b5090565b828054828255906000526020600020908101928215620013cb579160200282015b82811115620013ca578251829080519060200190620013b992919062001218565b509160200191906001019062001398565b5b509050620013da9190620013fd565b5090565b5b80821115620013f9576000816000905550600101620013df565b5090565b5b8082111562001421576000818162001417919062001425565b50600101620013fe565b5090565b508054620014339062001522565b6000825580601f1062001447575062001468565b601f016020900490600052602060002090810190620014679190620013de565b5b50565b60006200147882620014d0565b620014848185620014db565b935062001496818560208601620014ec565b620014a18162001587565b840191505092915050565b60006020820190508181036000830152620014c881846200146b565b905092915050565b600081519050919050565b600082825260208201905092915050565b60005b838110156200150c578082015181840152602081019050620014ef565b838111156200151c576000848401525b50505050565b600060028204905060018216806200153b57607f821691505b6020821081141562001552576200155162001558565b5b50919050565b7f4e487b7100000000000000000000000000000000000000000000000000000000600052602260045260246000fd5b6000601f19601f8301169050919050565b613ada80620015a86000396000f3fe608060405234801561001057600080fd5b50600436106101165760003560e01c806370a08231116100a2578063b88d4fde11610071578063b88d4fde14610317578063c575757a14610333578063c87b56dd14610363578063de9d132f14610393578063e985e9c51461039d57610116565b806370a082311461027d57806395d89b41146102ad578063a22cb465146102cb578063b187301f146102e757610116565b806323b872dd116100e957806323b872dd146101b55780632de38d68146101d157806342842e0e14610201578063514dc8c61461021d5780636352211e1461024d57610116565b806301ffc9a71461011b57806306fdde031461014b578063081812fc14610169578063095ea7b314610199575b600080fd5b6101356004803603810190610130919061262a565b6103cd565b6040516101429190613350565b60405180910390f35b6101536104af565b604051610160919061336b565b60405180910390f35b610183600480360381019061017e919061267c565b610541565b60405161019091906132c0565b60405180910390f35b6101b360048036038101906101ae91906125ee565b6105c6565b005b6101cf60048036038101906101ca91906124e8565b6106de565b005b6101eb60048036038101906101e6919061267c565b61073e565b6040516101f8919061336b565b60405180910390f35b61021b600480360381019061021691906124e8565b61085c565b005b6102376004803603810190610232919061267c565b61087c565b604051610244919061336b565b60405180910390f35b6102676004803603810190610262919061267c565b61099a565b60405161027491906132c0565b60405180910390f35b61029760048036038101906102929190612483565b610a4c565b6040516102a491906135cb565b60405180910390f35b6102b5610b04565b6040516102c2919061336b565b60405180910390f35b6102e560048036038101906102e091906125b2565b610b96565b005b61030160048036038101906102fc919061267c565b610bac565b60405161030e919061336b565b60405180910390f35b610331600480360381019061032c9190612537565b610cca565b005b61034d6004803603810190610348919061267c565b610d2c565b60405161035a919061336b565b60405180910390f35b61037d6004803603810190610378919061267c565b610e4a565b60405161038a919061336b565b60405180910390f35b61039b610f9c565b005b6103b760048036038101906103b291906124ac565b6111b5565b6040516103c49190613350565b60405180910390f35b60007f80ac58cd000000000000000000000000000000000000000000000000000000007bffffffffffffffffffffffffffffffffffffffffffffffffffffffff1916827bffffffffffffffffffffffffffffffffffffffffffffffffffffffff1916148061049857507f5b5e139f000000000000000000000000000000000000000000000000000000007bffffffffffffffffffffffffffffffffffffffffffffffffffffffff1916827bffffffffffffffffffffffffffffffffffffffffffffffffffffffff1916145b806104a857506104a7826112e2565b5b9050919050565b6060600080546104be9061386a565b80601f01602080910402602001604051908101604052809291908181526020018280546104ea9061386a565b80156105375780601f1061050c57610100808354040283529160200191610537565b820191906000526020600020905b81548152906001019060200180831161051a57829003601f168201915b5050505050905090565b600061054c8261134c565b61058b576040517f08c379a00000000000000000000000000000000000000000000000000000000081526004016105829061352b565b60405180910390fd5b6004600083815260200190815260200160002060009054906101000a900473ffffffffffffffffffffffffffffffffffffffff169050919050565b60006105d18261099a565b90508073ffffffffffffffffffffffffffffffffffffffff168373ffffffffffffffffffffffffffffffffffffffff161415610642576040517f08c379a00000000000000000000000000000000000000000000000000000000081526004016106399061358b565b60405180910390fd5b8073ffffffffffffffffffffffffffffffffffffffff166106616113b8565b73ffffffffffffffffffffffffffffffffffffffff161480610690575061068f8161068a6113b8565b6111b5565b5b6106cf576040517f08c379a00000000000000000000000000000000000000000000000000000000081526004016106c69061346b565b60405180910390fd5b6106d983836113c0565b505050565b6106ef6106e96113b8565b82611479565b61072e576040517f08c379a0000000000000000000000000000000000000000000000000000000008152600401610725906135ab565b60405180910390fd5b610739838383611557565b505050565b6060600061077261074e846117b3565b60405160200161075e919061325a565b604051602081830303815290604052611960565b9050600a805490508161078591906138e5565b9050600a81815481106107c1577f4e487b7100000000000000000000000000000000000000000000000000000000600052603260045260246000fd5b9060005260206000200180546107d69061386a565b80601f01602080910402602001604051908101604052809291908181526020018280546108029061386a565b801561084f5780601f106108245761010080835404028352916020019161084f565b820191906000526020600020905b81548152906001019060200180831161083257829003601f168201915b5050505050915050919050565b61087783838360405180602001604052806000815250610cca565b505050565b606060006108b061088c846117b3565b60405160200161089c919061329e565b604051602081830303815290604052611960565b9050600d80549050816108c391906138e5565b9050600d81815481106108ff577f4e487b7100000000000000000000000000000000000000000000000000000000600052603260045260246000fd5b9060005260206000200180546109149061386a565b80601f01602080910402602001604051908101604052809291908181526020018280546109409061386a565b801561098d5780601f106109625761010080835404028352916020019161098d565b820191906000526020600020905b81548152906001019060200180831161097057829003601f168201915b5050505050915050919050565b6000806002600084815260200190815260200160002060009054906101000a900473ffffffffffffffffffffffffffffffffffffffff169050600073ffffffffffffffffffffffffffffffffffffffff168173ffffffffffffffffffffffffffffffffffffffff161415610a43576040517f08c379a0000000000000000000000000000000000000000000000000000000008152600401610a3a906134ab565b60405180910390fd5b80915050919050565b60008073ffffffffffffffffffffffffffffffffffffffff168273ffffffffffffffffffffffffffffffffffffffff161415610abd576040517f08c379a0000000000000000000000000000000000000000000000000000000008152600401610ab49061348b565b60405180910390fd5b600360008373ffffffffffffffffffffffffffffffffffffffff1673ffffffffffffffffffffffffffffffffffffffff168152602001908152602001600020549050919050565b606060018054610b139061386a565b80601f0160208091040260200160405190810160405280929190818152602001828054610b3f9061386a565b8015610b8c5780601f10610b6157610100808354040283529160200191610b8c565b820191906000526020600020905b815481529060010190602001808311610b6f57829003601f168201915b5050505050905090565b610ba8610ba16113b8565b8383611993565b5050565b60606000610be0610bbc846117b3565b604051602001610bcc91906131f3565b604051602081830303815290604052611960565b9050600b8054905081610bf391906138e5565b9050600b8181548110610c2f577f4e487b7100000000000000000000000000000000000000000000000000000000600052603260045260246000fd5b906000526020600020018054610c449061386a565b80601f0160208091040260200160405190810160405280929190818152602001828054610c709061386a565b8015610cbd5780601f10610c9257610100808354040283529160200191610cbd565b820191906000526020600020905b815481529060010190602001808311610ca057829003601f168201915b5050505050915050919050565b610cdb610cd56113b8565b83611479565b610d1a576040517f08c379a0000000000000000000000000000000000000000000000000000000008152600401610d11906135ab565b60405180910390fd5b610d2684848484611b00565b50505050565b60606000610d60610d3c846117b3565b604051602001610d4c91906131d1565b604051602081830303815290604052611960565b9050600c8054905081610d7391906138e5565b9050600c8181548110610daf577f4e487b7100000000000000000000000000000000000000000000000000000000600052603260045260246000fd5b906000526020600020018054610dc49061386a565b80601f0160208091040260200160405190810160405280929190818152602001828054610df09061386a565b8015610e3d5780601f10610e1257610100808354040283529160200191610e3d565b820191906000526020600020905b815481529060010190602001808311610e2057829003601f168201915b5050505050915050919050565b6060610e558261134c565b610e94576040517f08c379a0000000000000000000000000000000000000000000000000000000008152600401610e8b9061350b565b60405180910390fd5b6000600660008481526020019081526020016000208054610eb49061386a565b80601f0160208091040260200160405190810160405280929190818152602001828054610ee09061386a565b8015610f2d5780601f10610f0257610100808354040283529160200191610f2d565b820191906000526020600020905b815481529060010190602001808311610f1057829003601f168201915b505050505090506000610f3e611b5c565b9050600081511415610f54578192505050610f97565b600082511115610f89578082604051602001610f71929190613111565b60405160208183030381529060405292505050610f97565b610f9284611b73565b925050505b919050565b6000610fa86007611c1a565b90506000610fb58261073e565b90506000610fc283610bac565b90506000610fcf84610d2c565b90506000838383604051602001610fe893929190613135565b604051602081830303815290604052905060006110048661087c565b905060006008826009856040516020016110219493929190613166565b604051602081830303815290604052905060006110668461104184611c28565b604051602001611052929190613215565b604051602081830303815290604052611c28565b905060008160405160200161107b919061327c565b60405160208183030381529060405290506110ca6040518060400160405280601881526020017f0a2d2d2d2d2d2d2d2d2d2d2d2d2d2d2d2d2d2d2d2d2d2d2d0000000000000000815250611249565b6110f2816040516020016110de91906131af565b604051602081830303815290604052611249565b6111306040518060400160405280601881526020017f2d2d2d2d2d2d2d2d2d2d2d2d2d2d2d2d2d2d2d2d2d2d2d0a0000000000000000815250611249565b61113a338a611dc7565b6111448982611de5565b61114e6007611e59565b611171604051806060016040528060258152602001613a80602591398a33611e6f565b7febb98688741ffa4c7589bf325de30cf7becb63de567842e1ccdb6cb949fdc82c338a6040516111a2929190613327565b60405180910390a1505050505050505050565b6000600560008473ffffffffffffffffffffffffffffffffffffffff1673ffffffffffffffffffffffffffffffffffffffff16815260200190815260200160002060008373ffffffffffffffffffffffffffffffffffffffff1673ffffffffffffffffffffffffffffffffffffffff16815260200190815260200160002060009054906101000a900460ff16905092915050565b6112df8160405160240161125d919061336b565b6040516020818303038152906040527f41304fac000000000000000000000000000000000000000000000000000000007bffffffffffffffffffffffffffffffffffffffffffffffffffffffff19166020820180517bffffffffffffffffffffffffffffffffffffffffffffffffffffffff8381831617835250505050611f0e565b50565b60007f01ffc9a7000000000000000000000000000000000000000000000000000000007bffffffffffffffffffffffffffffffffffffffffffffffffffffffff1916827bffffffffffffffffffffffffffffffffffffffffffffffffffffffff1916149050919050565b60008073ffffffffffffffffffffffffffffffffffffffff166002600084815260200190815260200160002060009054906101000a900473ffffffffffffffffffffffffffffffffffffffff1673ffffffffffffffffffffffffffffffffffffffff1614159050919050565b600033905090565b816004600083815260200190815260200160002060006101000a81548173ffffffffffffffffffffffffffffffffffffffff021916908373ffffffffffffffffffffffffffffffffffffffff160217905550808273ffffffffffffffffffffffffffffffffffffffff166114338361099a565b73ffffffffffffffffffffffffffffffffffffffff167f8c5be1e5ebec7d5bd14f71427d1e84f3dd0314c0f7b2291e5b200ac8c7c3b92560405160405180910390a45050565b60006114848261134c565b6114c3576040517f08c379a00000000000000000000000000000000000000000000000000000000081526004016114ba9061344b565b60405180910390fd5b60006114ce8361099a565b90508073ffffffffffffffffffffffffffffffffffffffff168473ffffffffffffffffffffffffffffffffffffffff16148061153d57508373ffffffffffffffffffffffffffffffffffffffff1661152584610541565b73ffffffffffffffffffffffffffffffffffffffff16145b8061154e575061154d81856111b5565b5b91505092915050565b8273ffffffffffffffffffffffffffffffffffffffff166115778261099a565b73ffffffffffffffffffffffffffffffffffffffff16146115cd576040517f08c379a00000000000000000000000000000000000000000000000000000000081526004016115c49061354b565b60405180910390fd5b600073ffffffffffffffffffffffffffffffffffffffff168273ffffffffffffffffffffffffffffffffffffffff16141561163d576040517f08c379a00000000000000000000000000000000000000000000000000000000081526004016116349061340b565b60405180910390fd5b611648838383611f37565b6116536000826113c0565b6001600360008573ffffffffffffffffffffffffffffffffffffffff1673ffffffffffffffffffffffffffffffffffffffff16815260200190815260200160002060008282546116a39190613780565b925050819055506001600360008473ffffffffffffffffffffffffffffffffffffffff1673ffffffffffffffffffffffffffffffffffffffff16815260200190815260200160002060008282546116fa919061369f565b92505081905550816002600083815260200190815260200160002060006101000a81548173ffffffffffffffffffffffffffffffffffffffff021916908373ffffffffffffffffffffffffffffffffffffffff160217905550808273ffffffffffffffffffffffffffffffffffffffff168473ffffffffffffffffffffffffffffffffffffffff167fddf252ad1be2c89b69c2b068fc378daa952ba7f163c4a11628f55a4df523b3ef60405160405180910390a4505050565b606060008214156117fb576040518060400160405280600181526020017f3000000000000000000000000000000000000000000000000000000000000000815250905061195b565b600082905060005b6000821461182d5780806118169061389c565b915050600a8261182691906136f5565b9150611803565b60008167ffffffffffffffff81111561186f577f4e487b7100000000000000000000000000000000000000000000000000000000600052604160045260246000fd5b6040519080825280601f01601f1916602001820160405280156118a15781602001600182028036833780820191505090505b5090505b60008514611954576001826118ba9190613780565b9150600a856118c991906138e5565b60306118d5919061369f565b60f81b818381518110611911577f4e487b7100000000000000000000000000000000000000000000000000000000600052603260045260246000fd5b60200101907effffffffffffffffffffffffffffffffffffffffffffffffffffffffffffff1916908160001a905350600a8561194d91906136f5565b94506118a5565b8093505050505b919050565b60008160405160200161197391906130fa565b6040516020818303038152906040528051906020012060001c9050919050565b8173ffffffffffffffffffffffffffffffffffffffff168373ffffffffffffffffffffffffffffffffffffffff161415611a02576040517f08c379a00000000000000000000000000000000000000000000000000000000081526004016119f99061342b565b60405180910390fd5b80600560008573ffffffffffffffffffffffffffffffffffffffff1673ffffffffffffffffffffffffffffffffffffffff16815260200190815260200160002060008473ffffffffffffffffffffffffffffffffffffffff1673ffffffffffffffffffffffffffffffffffffffff16815260200190815260200160002060006101000a81548160ff0219169083151502179055508173ffffffffffffffffffffffffffffffffffffffff168373ffffffffffffffffffffffffffffffffffffffff167f17307eab39ab6107e8899845ad3d59bd9653f200f220920489ca2b5937696c3183604051611af39190613350565b60405180910390a3505050565b611b0b848484611557565b611b1784848484611f3c565b611b56576040517f08c379a0000000000000000000000000000000000000000000000000000000008152600401611b4d906133cb565b60405180910390fd5b50505050565b606060405180602001604052806000815250905090565b6060611b7e8261134c565b611bbd576040517f08c379a0000000000000000000000000000000000000000000000000000000008152600401611bb49061356b565b60405180910390fd5b6000611bc7611b5c565b90506000815111611be75760405180602001604052806000815250611c12565b80611bf1846117b3565b604051602001611c02929190613111565b6040516020818303038152906040525b915050919050565b600081600001549050919050565b6060600082511415611c4b57604051806020016040528060008152509050611dc2565b6000604051806060016040528060408152602001613a406040913990506000600360028551611c7a919061369f565b611c8491906136f5565b6004611c909190613726565b90506000602082611ca1919061369f565b67ffffffffffffffff811115611ce0577f4e487b7100000000000000000000000000000000000000000000000000000000600052604160045260246000fd5b6040519080825280601f01601f191660200182016040528015611d125781602001600182028036833780820191505090505b509050818152600183018586518101602084015b81831015611d81576003830192508251603f8160121c168501518253600182019150603f81600c1c168501518253600182019150603f8160061c168501518253600182019150603f8116850151825360018201915050611d26565b600389510660018114611d9b5760028114611dab57611db6565b613d3d60f01b6002830352611db6565b603d60f81b60018303525b50505050508093505050505b919050565b611de18282604051806020016040528060008152506120d3565b5050565b611dee8261134c565b611e2d576040517f08c379a0000000000000000000000000000000000000000000000000000000008152600401611e24906134cb565b60405180910390fd5b80600660008481526020019081526020016000209080519060200190611e5492919061230f565b505050565b6001816000016000828254019250508190555050565b611f09838383604051602401611e879392919061338d565b6040516020818303038152906040527fe3849f79000000000000000000000000000000000000000000000000000000007bffffffffffffffffffffffffffffffffffffffffffffffffffffffff19166020820180517bffffffffffffffffffffffffffffffffffffffffffffffffffffffff8381831617835250505050611f0e565b505050565b60008151905060006a636f6e736f6c652e6c6f679050602083016000808483855afa5050505050565b505050565b6000611f5d8473ffffffffffffffffffffffffffffffffffffffff1661212e565b156120c6578373ffffffffffffffffffffffffffffffffffffffff1663150b7a02611f866113b8565b8786866040518563ffffffff1660e01b8152600401611fa894939291906132db565b602060405180830381600087803b158015611fc257600080fd5b505af1925050508015611ff357506040513d601f19601f82011682018060405250810190611ff09190612653565b60015b612076573d8060008114612023576040519150601f19603f3d011682016040523d82523d6000602084013e612028565b606091505b5060008151141561206e576040517f08c379a0000000000000000000000000000000000000000000000000000000008152600401612065906133cb565b60405180910390fd5b805181602001fd5b63150b7a0260e01b7bffffffffffffffffffffffffffffffffffffffffffffffffffffffff1916817bffffffffffffffffffffffffffffffffffffffffffffffffffffffff1916149150506120cb565b600190505b949350505050565b6120dd8383612141565b6120ea6000848484611f3c565b612129576040517f08c379a0000000000000000000000000000000000000000000000000000000008152600401612120906133cb565b60405180910390fd5b505050565b600080823b905060008111915050919050565b600073ffffffffffffffffffffffffffffffffffffffff168273ffffffffffffffffffffffffffffffffffffffff1614156121b1576040517f08c379a00000000000000000000000000000000000000000000000000000000081526004016121a8906134eb565b60405180910390fd5b6121ba8161134c565b156121fa576040517f08c379a00000000000000000000000000000000000000000000000000000000081526004016121f1906133eb565b60405180910390fd5b61220660008383611f37565b6001600360008473ffffffffffffffffffffffffffffffffffffffff1673ffffffffffffffffffffffffffffffffffffffff1681526020019081526020016000206000828254612256919061369f565b92505081905550816002600083815260200190815260200160002060006101000a81548173ffffffffffffffffffffffffffffffffffffffff021916908373ffffffffffffffffffffffffffffffffffffffff160217905550808273ffffffffffffffffffffffffffffffffffffffff16600073ffffffffffffffffffffffffffffffffffffffff167fddf252ad1be2c89b69c2b068fc378daa952ba7f163c4a11628f55a4df523b3ef60405160405180910390a45050565b82805461231b9061386a565b90600052602060002090601f01602090048101928261233d5760008555612384565b82601f1061235657805160ff1916838001178555612384565b82800160010185558215612384579182015b82811115612383578251825591602001919060010190612368565b5b5090506123919190612395565b5090565b5b808211156123ae576000816000905550600101612396565b5090565b60006123c56123c084613617565b6135e6565b9050828152602081018484840111156123dd57600080fd5b6123e8848285613828565b509392505050565b6000813590506123ff816139e3565b92915050565b600081359050612414816139fa565b92915050565b60008135905061242981613a11565b92915050565b60008151905061243e81613a11565b92915050565b600082601f83011261245557600080fd5b81356124658482602086016123b2565b91505092915050565b60008135905061247d81613a28565b92915050565b60006020828403121561249557600080fd5b60006124a3848285016123f0565b91505092915050565b600080604083850312156124bf57600080fd5b60006124cd858286016123f0565b92505060206124de858286016123f0565b9150509250929050565b6000806000606084860312156124fd57600080fd5b600061250b868287016123f0565b935050602061251c868287016123f0565b925050604061252d8682870161246e565b9150509250925092565b6000806000806080858703121561254d57600080fd5b600061255b878288016123f0565b945050602061256c878288016123f0565b935050604061257d8782880161246e565b925050606085013567ffffffffffffffff81111561259a57600080fd5b6125a687828801612444565b91505092959194509250565b600080604083850312156125c557600080fd5b60006125d3858286016123f0565b92505060206125e485828601612405565b9150509250929050565b6000806040838503121561260157600080fd5b600061260f858286016123f0565b92505060206126208582860161246e565b9150509250929050565b60006020828403121561263c57600080fd5b600061264a8482850161241a565b91505092915050565b60006020828403121561266557600080fd5b60006126738482850161242f565b91505092915050565b60006020828403121561268e57600080fd5b600061269c8482850161246e565b91505092915050565b6126ae816137b4565b82525050565b6126bd816137c6565b82525050565b60006126ce8261365c565b6126d88185613672565b93506126e8818560208601613837565b6126f1816139d2565b840191505092915050565b600061270782613667565b6127118185613683565b9350612721818560208601613837565b61272a816139d2565b840191505092915050565b600061274082613667565b61274a8185613694565b935061275a818560208601613837565b80840191505092915050565b600081546127738161386a565b61277d8186613694565b9450600182166000811461279857600181146127a9576127dc565b60ff198316865281860193506127dc565b6127b285613647565b60005b838110156127d4578154818901526001820191506020810190506127b5565b838801955050505b50505092915050565b60006127f2602583613694565b91507f68747470733a2f2f6e6674707265766965772e30786465762e636f6465732f3f60008301527f636f64653d0000000000000000000000000000000000000000000000000000006020830152602582019050919050565b6000612858603283613683565b91507f4552433732313a207472616e7366657220746f206e6f6e20455243373231526560008301527f63656976657220696d706c656d656e74657200000000000000000000000000006020830152604082019050919050565b60006128be601c83613683565b91507f4552433732313a20746f6b656e20616c7265616479206d696e746564000000006000830152602082019050919050565b60006128fe600a83613694565b91507f54484952445f574f5244000000000000000000000000000000000000000000006000830152600a82019050919050565b600061293e602483613683565b91507f4552433732313a207472616e7366657220746f20746865207a65726f2061646460008301527f72657373000000000000000000000000000000000000000000000000000000006020830152604082019050919050565b60006129a4601983613683565b91507f4552433732313a20617070726f766520746f2063616c6c6572000000000000006000830152602082019050919050565b60006129e4606383613694565b91507f222c20226465736372697074696f6e223a20224120686967686c79206163636c60008301527f61696d656420636f6c6c656374696f6e206f6620737175617265732e222c202260208301527f696d616765223a2022646174613a696d6167652f7376672b786d6c3b6261736560408301527f36342c00000000000000000000000000000000000000000000000000000000006060830152606382019050919050565b6000612a96600b83613694565b91507f5345434f4e445f574f52440000000000000000000000000000000000000000006000830152600b82019050919050565b6000612ad6602c83613683565b91507f4552433732313a206f70657261746f7220717565727920666f72206e6f6e657860008301527f697374656e7420746f6b656e00000000000000000000000000000000000000006020830152604082019050919050565b6000612b3c600d83613694565b91507f3c2f746578743e3c2f7376673e000000000000000000000000000000000000006000830152600d82019050919050565b6000612b7c603883613683565b91507f4552433732313a20617070726f76652063616c6c6572206973206e6f74206f7760008301527f6e6572206e6f7220617070726f76656420666f7220616c6c00000000000000006020830152604082019050919050565b6000612be2602a83613683565b91507f4552433732313a2062616c616e636520717565727920666f7220746865207a6560008301527f726f2061646472657373000000000000000000000000000000000000000000006020830152604082019050919050565b6000612c48602983613683565b91507f4552433732313a206f776e657220717565727920666f72206e6f6e657869737460008301527f656e7420746f6b656e00000000000000000000000000000000000000000000006020830152604082019050919050565b6000612cae602e83613683565b91507f45524337323155524953746f726167653a2055524920736574206f66206e6f6e60008301527f6578697374656e7420746f6b656e0000000000000000000000000000000000006020830152604082019050919050565b6000612d14600283613694565b91507f227d0000000000000000000000000000000000000000000000000000000000006000830152600282019050919050565b6000612d54602083613683565b91507f4552433732313a206d696e7420746f20746865207a65726f20616464726573736000830152602082019050919050565b6000612d94603183613683565b91507f45524337323155524953746f726167653a2055524920717565727920666f722060008301527f6e6f6e6578697374656e7420746f6b656e0000000000000000000000000000006020830152604082019050919050565b6000612dfa602c83613683565b91507f4552433732313a20617070726f76656420717565727920666f72206e6f6e657860008301527f697374656e7420746f6b656e00000000000000000000000000000000000000006020830152604082019050919050565b6000612e60602983613683565b91507f4552433732313a207472616e73666572206f6620746f6b656e2074686174206960008301527f73206e6f74206f776e00000000000000000000000000000000000000000000006020830152604082019050919050565b6000612ec6602f83613683565b91507f4552433732314d657461646174613a2055524920717565727920666f72206e6f60008301527f6e6578697374656e7420746f6b656e00000000000000000000000000000000006020830152604082019050919050565b6000612f2c600a83613694565b91507f7b226e616d65223a2022000000000000000000000000000000000000000000006000830152600a82019050919050565b6000612f6c602183613683565b91507f4552433732313a20617070726f76616c20746f2063757272656e74206f776e6560008301527f72000000000000000000000000000000000000000000000000000000000000006020830152604082019050919050565b6000612fd2600a83613694565b91507f46495253545f574f5244000000000000000000000000000000000000000000006000830152600a82019050919050565b6000613012601d83613694565b91507f646174613a6170706c69636174696f6e2f6a736f6e3b6261736536342c0000006000830152601d82019050919050565b6000613052603183613683565b91507f4552433732313a207472616e736665722063616c6c6572206973206e6f74206f60008301527f776e6572206e6f7220617070726f7665640000000000000000000000000000006020830152604082019050919050565b60006130b8600583613694565b91507f434f4c4f520000000000000000000000000000000000000000000000000000006000830152600582019050919050565b6130f48161381e565b82525050565b60006131068284612735565b915081905092915050565b600061311d8285612735565b91506131298284612735565b91508190509392505050565b60006131418286612735565b915061314d8285612735565b91506131598284612735565b9150819050949350505050565b60006131728287612766565b915061317e8286612735565b915061318a8285612766565b91506131968284612735565b91506131a182612b2f565b915081905095945050505050565b60006131ba826127e5565b91506131c68284612735565b915081905092915050565b60006131dc826128f1565b91506131e88284612735565b915081905092915050565b60006131fe82612a89565b915061320a8284612735565b915081905092915050565b600061322082612f1f565b915061322c8285612735565b9150613237826129d7565b91506132438284612735565b915061324e82612d07565b91508190509392505050565b600061326582612fc5565b91506132718284612735565b915081905092915050565b600061328782613005565b91506132938284612735565b915081905092915050565b60006132a9826130ab565b91506132b58284612735565b915081905092915050565b60006020820190506132d560008301846126a5565b92915050565b60006080820190506132f060008301876126a5565b6132fd60208301866126a5565b61330a60408301856130eb565b818103606083015261331c81846126c3565b905095945050505050565b600060408201905061333c60008301856126a5565b61334960208301846130eb565b9392505050565b600060208201905061336560008301846126b4565b92915050565b6000602082019050818103600083015261338581846126fc565b905092915050565b600060608201905081810360008301526133a781866126fc565b90506133b660208301856130eb565b6133c360408301846126a5565b949350505050565b600060208201905081810360008301526133e48161284b565b9050919050565b60006020820190508181036000830152613404816128b1565b9050919050565b6000602082019050818103600083015261342481612931565b9050919050565b6000602082019050818103600083015261344481612997565b9050919050565b6000602082019050818103600083015261346481612ac9565b9050919050565b6000602082019050818103600083015261348481612b6f565b9050919050565b600060208201905081810360008301526134a481612bd5565b9050919050565b600060208201905081810360008301526134c481612c3b565b9050919050565b600060208201905081810360008301526134e481612ca1565b9050919050565b6000602082019050818103600083015261350481612d47565b9050919050565b6000602082019050818103600083015261352481612d87565b9050919050565b6000602082019050818103600083015261354481612ded565b9050919050565b6000602082019050818103600083015261356481612e53565b9050919050565b6000602082019050818103600083015261358481612eb9565b9050919050565b600060208201905081810360008301526135a481612f5f565b9050919050565b600060208201905081810360008301526135c481613045565b9050919050565b60006020820190506135e060008301846130eb565b92915050565b6000604051905081810181811067ffffffffffffffff8211171561360d5761360c6139a3565b5b8060405250919050565b600067ffffffffffffffff821115613632576136316139a3565b5b601f19601f8301169050602081019050919050565b60008190508160005260206000209050919050565b600081519050919050565b600081519050919050565b600082825260208201905092915050565b600082825260208201905092915050565b600081905092915050565b60006136aa8261381e565b91506136b58361381e565b9250827fffffffffffffffffffffffffffffffffffffffffffffffffffffffffffffffff038211156136ea576136e9613916565b5b828201905092915050565b60006137008261381e565b915061370b8361381e565b92508261371b5761371a613945565b5b828204905092915050565b60006137318261381e565b915061373c8361381e565b9250817fffffffffffffffffffffffffffffffffffffffffffffffffffffffffffffffff048311821515161561377557613774613916565b5b828202905092915050565b600061378b8261381e565b91506137968361381e565b9250828210156137a9576137a8613916565b5b828203905092915050565b60006137bf826137fe565b9050919050565b60008115159050919050565b60007fffffffff0000000000000000000000000000000000000000000000000000000082169050919050565b600073ffffffffffffffffffffffffffffffffffffffff82169050919050565b6000819050919050565b82818337600083830152505050565b60005b8381101561385557808201518184015260208101905061383a565b83811115613864576000848401525b50505050565b6000600282049050600182168061388257607f821691505b6020821081141561389657613895613974565b5b50919050565b60006138a78261381e565b91507fffffffffffffffffffffffffffffffffffffffffffffffffffffffffffffffff8214156138da576138d9613916565b5b600182019050919050565b60006138f08261381e565b91506138fb8361381e565b92508261390b5761390a613945565b5b828206905092915050565b7f4e487b7100000000000000000000000000000000000000000000000000000000600052601160045260246000fd5b7f4e487b7100000000000000000000000000000000000000000000000000000000600052601260045260246000fd5b7f4e487b7100000000000000000000000000000000000000000000000000000000600052602260045260246000fd5b7f4e487b7100000000000000000000000000000000000000000000000000000000600052604160045260246000fd5b6000601f19601f8301169050919050565b6139ec816137b4565b81146139f757600080fd5b50565b613a03816137c6565b8114613a0e57600080fd5b50565b613a1a816137d2565b8114613a2557600080fd5b50565b613a318161381e565b8114613a3c57600080fd5b5056fe4142434445464748494a4b4c4d4e4f505152535455565758595a6162636465666768696a6b6c6d6e6f707172737475767778797a303132333435363738392b2f416e204e465420772f20696420257320686173206265656e206d696e74656420746f202573a26469706673582212206b622544f6ab6d503e74970de8ead0fd89c3f413d36276cb61f5667439510f5064736f6c634300080000333c73766720786d6c6e733d27687474703a2f2f7777772e77332e6f72672f323030302f73766727207072657365727665417370656374526174696f3d27784d696e594d696e206d656574272076696577426f783d273020302033353020333530273e3c7374796c653e2e62617365207b2066696c6c3a2077686974653b20666f6e742d66616d696c793a2073657269663b20666f6e742d73697a653a20323470783b207d3c2f7374796c653e3c726563742077696474683d273130302527206865696768743d2731303025272066696c6c3d27272f3e3c7465787420783d273530252720793d273530252720636c6173733d27626173652720646f6d696e616e742d626173656c696e653d276d6964646c652720746578742d616e63686f723d276d6964646c65273e",
  "linkReferences": {},
  "deployedLinkReferences": {}
}